:100000000C942A000C946B020C9475020C9447001B
:100010000C9447000C9447000C9447000C94470044
:100020000C9447000C9447000C947F020C944700FA
:100030000C9447000C943A020C9447000C94120262
:100040000C9447000C9447000C9447000C94470014
:100050000C94470011241FBECFE5D8E0DEBFCDBF12
:1000600010E0A0E6B0E0E4EFF6E002C005900D92EB
:10007000AA36B107D9F720E0AAE6B0E001C01D9288
:10008000AD3DB207E1F70E9406020C9478030C9490
:1000900000008FB9779BFECF8FB108950E94490071
:1000A0000895AA980E944E0080E00E944E00AA9AED
:1000B0000895CF93DF93D62FAA980E944E00C82FA1
:1000C0008D2F0E944E00AA9A8C2FDF91CF91089518
:1000D000EF92FF920F931F93CF93DF93E62E172F8C
:1000E000042FAA980E944E00F82E002351F0CE2D26
:1000F000D12F10E080E00E944E0089931F5F101303
:10010000F9CFAA9A8F2DDF91CF911F910F91FF9078
:10011000EF900895CF92DF92EF92FF920F931F938B
:10012000CF93DF93E62EC72E8A01AA980E944E0035
:10013000D82E0115110561F0FE2CCE2DDC2D8991F4
:100140000E944E002C2F2F1930E020173107B8F3F2
:10015000AA9A8D2DDF91CF911F910F91FF90EF9073
:10016000DF90CF90089581E58DB91EB887EC90E0BF
:100170000197F1F700C00000AB98AA9A45E050E063
:1001800065E670E080E30E948A0045E050E060E6AA
:1001900070E08AE20E948A0060E081E20E945900D9
:1001A00061E082E20E94590062E085E20E9459000B
:1001B00060E281E30E94590067E086E20E945900F4
:1001C0006EE080E20E9459000895AB9867E080E2FB
:1001D0000E945900AB9A83E091E00197F1F700C0CB
:1001E000000008951F93CF93DF93EC0187E00E94F6
:1001F0005100182F86FF08C0AB9840E2BE0181E68F
:100200000E946800C1E001C0C0E0612F87E20E9447
:100210005900AB9A8C2FDF91CF911F91089580E404
:1002200087B983E886B908958DB180658DB9709AD4
:1002300008951BB888ED8AB986E080BD10BC8CE0BB
:1002400089B908958BB7806C8BBF85E085BF14BEDC
:1002500080EC8ABF08958FEF8ABB8FEB87BB8CEF52
:1002600084BB82EF81BB08958BE083BF8EE38CBF9C
:1002700082E089BF82EA8FBD8AE18EBD80E197E28C
:1002800097BD86BD1BBC1ABC19BC18BC0895F89458
:100290000E940F010E9422010E942B010E94140162
:1002A0000E9434010E9419010E94B3000E94E500DF
:1002B000789408950F931F93992354F0AE9A44E6CF
:1002C000489F9001499F300D11243BBD2ABD0AC0B3
:1002D000AE984CE98C0140039001419F300D1124F0
:1002E0003BBD2ABD772354F0AF9A24E6269FC00178
:1002F000279F900D112499BD88BD09C0AF982CE9A6
:100300002603C001279F900D112499BD88BD1F9120
:100310000F910895CF92DF92EF92FF928DEB90E0D4
:100320000E94F200813071F5EDEBF0E0ABE6B0E059
:1003300089ED90E021912D93E817F907D9F7C09046
:100340006B00D0906C00E0906D00F0906E0020E0AB
:1003500030E040E251E4C701B6010E94C1020E94B0
:100360008E027093880060938700C701B6010E94D7
:100370008902CB016AE070E00E9450037093BA00DA
:100380006093B90080918700909188000497F1F400
:1003900060916B0070916C0080916D0090916E0087
:1003A0000E948902CB016AE070E00E9450037093C2
:1003B000BA006093B9008CE1EBE6F0E0ACE9B0E0A4
:1003C00001900D928A95E1F781E001C080E0FF90F5
:1003D000EF90DF90CF9008950E948A018130A9F4B8
:1003E0008091B9009091BA00089741F464E670E0FA
:1003F00084E690E00E945A01AC9A089560E070E0B3
:1004000080E090E00E945A01AC9808950E94470154
:10041000AD9A60E070E080E090E00E945A010E9496
:10042000EC01FDCF1F920F920FB60F9211248F9304
:10043000EF93FF9380918A008823A1F081508093ED
:100440008A00E091BB0081E08E0F8093BB00F0E05A
:10045000ED56FF4F80818CB98091BB00883011F43C
:100460001092BB00FF91EF918F910F900FBE0F90F4
:100470001F9018951F920F920FB60F9211248F9311
:100480009F93EF93FF938BB19CB18C71D9F4E09162
:100490006A0081E08E0F80936A00F0E0E557FF4F1D
:1004A0009083883011F410926A0080919B008F5FD6
:1004B000883019F080939B0005C010929B0081E06A
:1004C00080938900FF91EF919F918F910F900FBEC4
:1004D0000F901F9018951F920F920FB60F92112434
:1004E0000F900FBE0F901F9018951F920F920FB68E
:1004F0000F9211240F900FBE0F901F9018951F920E
:100500000F920FB60F9211240F900FBE0F901F90F5
:10051000189504D06894B111BDC00895A0D088F09A
:100520009F5790F0B92F9927B751A0F0D1F0660FDF
:10053000771F881F991F1AF0BA95C9F712C0B130FA
:1005400081F0A7D0B1E00895A4C0672F782F882745
:10055000B85F39F0B93FCCF3869577956795B39539
:10056000D9F73EF490958095709561957F4F8F4FA8
:100570009F4F08955ED018F011F062D038F456C045
:1005800089C0E92F64D0B0F35523C9F3E7FB6217A4
:10059000730784079507A8F199F3E92FFF278823AC
:1005A0002AF03197660F771F881FDAF7952F5527A6
:1005B000442332F091505040220F331F441FD2F792
:1005C000BB27E91BF50B621B730B840BB109C1F24E
:1005D00022F4620F731F841FB11D31972AF0660F3A
:1005E000771F881FBB1FEFCF915050405AF041F04A
:1005F000882332F0660F771F881F91505040C1F753
:10060000939506C08695779567959F5FD9F7F8CF44
:100610009F3F31F0915020F4879577956795B79576
:10062000880F911D9695879597F908959FEF80EC17
:10063000089500240A941616170618060906089548
:1006400000240A941216130614060506089557FD91
:100650009058440F551F59F05F3F71F04795880F30
:1006600097FB991F61F09F3F79F0879508951216C7
:1006700013061406551FF2CF4695F1DF08C0161673
:1006800017061806991FF1CF869571056105089424
:100690000895E894BB2766277727CB0197F908953B
:1006A00097FB072E16F4009407D077FD09D00E941F
:1006B000640307FC05D03EF4909581959F4F089503
:1006C000709561957F4F0895AA1BBB1B51E107C030
:1006D000AA1FBB1FA617B70710F0A61BB70B881FD2
:1006E000991F5A95A9F780959095BC01CD01089561
:0406F000F894FFCFAC
:0A06F400E7E7E7E7E7E7E7E7E7E7F6
:00000001FF
