:0E0000000C9480020C94F1040C94F6040C9401
:10000E0000000C9400000C9400000C9400000C9462
:10001E0000000C9400000C9443050C9400000C940A
:10002E0000000C9400000C9457040C9400000C94E7
:10003E009F040C9400000C9400000C9400000C948F
:10004E0000000C940000000000000000005F0000A3
:10005E000007000700147F147F14242A7F2A12231E
:10006E001308646236495522500005030000001C37
:10007E002241000041221C0014083E081408083ECC
:10008E0008080050300000080808080800606000EA
:10009E000020100804023E5149453E00427F4000B8
:1000AE0042615149462141454B311814127F1027A8
:1000BE00454545393C4A49493001710905033649E0
:1000CE00494936064949291E003636000000563683
:1000DE0000000814224100141414141400412214B8
:1000EE00080201510906324979413E7E1111117EF5
:1000FE007F494949363E414141227F4141221C7F81
:10010E00494949417F090909013E4149497A7F0818
:10011E0008087F00417F41002040413F017F0814C5
:10012E0022417F404040407F020C027F7F04081036
:10013E007F3E4141413E7F090909063E4151215E04
:10014E007F09192946464949493101017F01013F7D
:10015E004040403F1F2040201F3F4038403F631427
:10016E0008146307087008076151494543007F4131
:10017E00410002040810200041417F0004020102E8
:10018E000440404040400001020400205454547882
:10019E007F484444383844444420384444487F38E7
:1001AE0054545418087E0901020C5252523E7F08D4
:1001BE0004047800447D40002040443D007F102818
:1001CE00440000417F40007C041804787C0804043D
:1001DE007838444444387C14141408081414187CD9
:1001EE007C080404084854545420043F4440203CE6
:1001FE004040207C1C2040201C3C4030403C442889
:10020E001028440C5050503C4464544C4400083662
:10021E00410000007F000000413608001008081061
:10022E000878464146780000E7E7E7E7E700E7E7AA
:10023E00E7E7E70001000A0001000A0001000100E3
:10024E0000000000000000000000000000000000A0
:10025E000000000000000000000000000000000090
:10026E000000000000000000000000000000000080
:10027E0000000000000000000100000000002564E6
:10028E000025302E326600203C414B424F544B49E4
:10029E00543E00524F424F542057414C4C00574849
:1002AE00495445204C494E4500464F4C4F574552F8
:1002BE0000424C41434B204C494E4500424C554563
:1002CE00544F4F54480044524956450054455354D8
:1002DE00204D4F544F52004D6F746F724C004D6F46
:1002EE00746F725200544553542055415254005469
:1002FE0045535420495200302E00312E00322E002C
:10030E00332E00342E00352E00362E00372E003CB4
:10031E0053454C4620544553543E002A2A2A2A2A35
:10032E002A2A2A2A2A2A2A00524320534552564F55
:10033E0000312E524F424F542057414C4C00322E1A
:10034E00424C5545544F4F54482000332E57484980
:10035E005445204C494E4500342E424C41434B20CF
:10036E004C494E4500352E54455354204D4F544F55
:10037E005200362E54455354204952202020003727
:10038E002E5445535420524620202000382E5445DA
:10039E00535420554152542000392E524320534578
:1003AE0052564F200031302E555044415445205264
:1003BE00420044696E68204D61686F6E65002D4E77
:1003CE00414E000001002D4E414E00494E460000A8
:1003DE000100020034020500C40336020500C90301
:1003EE003C0201001A0542020100450544020100CB
:1003FE004705460201004905480201004B054A0225
:10040E000C00600295020B006C02A1020B00770239
:10041E00AC0208008202B7020B008A02BF0208007B
:10042E009502B7020A009D02CA020600A702D40274
:10043E000B00AD02DA020700B802E5020700BF02A8
:10044E00EC020A00C602F3020800D002FD0203000D
:10045E00D80205030300DB0208030300DE020B03D0
:10046E000300E1020E030300E40211030300E7029E
:10047E0014030300EA0217030300ED021A030C0033
:10048E00F0021D030D00FC022903090009033603C7
:10049E000D0012033F030D001F033F030D002C033D
:1004AE004C030D00390359030D00460366030D007E
:1004BE00530373030D00600380030D006D038D0362
:1004CE000D007A039A030C008703A7030D00930314
:1004DE00B3030B00A00396020D00AB0329030C001F
:1004EE00B803C00306000400860201007905D2039A
:1004FE000000F894EE27ECBBF1E0F5BFE5BFF8E1A4
:10050E00F1BDE1BD8DE0A2E0BB27ED938A95E9F741
:10051E0080E098E0A0E6ED930197E9F7EEEDF3E0C9
:10052E0085919591009761F0A591B59105901590E3
:10053E00BF01F00105900D920197E1F7FB01F0CF9D
:10054E00EFE5EDBFE8E0EEBFC0E6D2E00C94440F5D
:10055E00E1E5EDB9E0E0EEB988EC90E00197F1F756
:10056E00AB98AA9AE0E3EA93E4ECF3E00E9447101A
:10057E00EAE2EA93E9ECF3E00E944710E1E2EA9343
:10058E00E0E0EA932CD0E2E2EA93E1E0EA9327D0AE
:10059E00E5E2EA93E2E0EA9322D0E1E3EA93E0E2D5
:1005AE00EA931DD0E6E2EA93E7E0EA9318D0E0E2A0
:1005BE00EA93EEE0EA9313D00895E881EA930E945D
:1005CE00B10F0C9435051A93AA98E981EA93F5DFD9
:1005DE00E0E00E944F10AA9AE12F188146C11A93AB
:1005EE00AA98EA810E944F10E981EA93E6DFAA9A5F
:1005FE00E12F1881ACC01A930A93AA98ED810E943C
:10060E004F1000E0EA810E1780F4E02FAB81BC8121
:10061E00F0E0EA0FFB1FFF93EF93E0E0EA93CDDFEC
:10062E00AF91BF91EC930F5FEDCFAA9AE12F198195
:10063E000881269608951A930A93AA98EE810E942D
:10064E004F1000E0EA81FB81A02FB0E0AE17BF078C
:10065E0048F4AC81BD81ED91AC83BD83EA93ADDFEF
:10066E000F5FF0CFAA9AE12F19810881279608957E
:10067E00AB98E0E2EA93E7E0EA93B1DFAB9A84E06D
:10068E0091E00197F1F708951A930A9310E0E7E0CD
:10069E00EA9399DF0E2F06FF0BC0AB98E1E6EA93C3
:1006AE00EB81FC81FA93EA93E0E2EA93A4DF11E096
:1006BE00E7E2EA930A9393DFAB9AE12F198108815F
:1006CE000C949F08AC9902C0AC9A01C0AC980895E6
:1006DE00AD9902C0AD9A01C0AD980895E881EFB909
:1006EE00779BFECFBBC1E981E03011F4C29801C007
:1006FE00C29AC19AC198E881EA93F0DFC19AB5C057
:10070E00E0E0EA93EB81E0640E945410E981E06836
:10071E00EA93E9DF0DC50E945A100530E0E01E078E
:10072E002CF40E9467100F5F1F4FF7CF0BC00E9473
:10073E005A100530E0E01E072CF40E9467100F5F80
:10074E001F4FF7CFE1E00E947810198108812396A0
:10075E000895A881B981EC91E03031F0ED91A88334
:10076E00B983EA93D8DFF5CF80C00E947D10083F91
:10077E00E1E01E0734F4E1E00E9478100F5F1F4F96
:10078E00F6CF0E9484100E948410BADF50C40E94DB
:10079E007D10083FE1E01E0734F4E1E00E9478107E
:1007AE000F5F1F4FF6CF0E9484100E948410A8DFA7
:1007BE003EC425971A9310E0153030F40E9489102C
:1007CE000E948C101F5FF8CF11E0153038F40E9494
:1007DE0089100E94A210ABDF1F5FF7CF31C0C09807
:1007EE008BE18A95F1F7C09A0E94B010E0E0EA938F
:1007FE00E1E20E945410EFEB0E945410E6E00E94DA
:10080E005410E3E10E945410E0E20E945410ECE018
:10081E00EA9369DF089525971A9310E0153030F4A6
:10082E000E9489100E948C101F5FF8CF10E01530C7
:10083E0038F40E9489100E94A2106DDF1F5FF7CF5F
:10084E00188128960895A981AA2342F4A881B98116
:10085E00E0E0F0E00E94B610EDE201C0E0E2EA93C3
:10086E005ADFE881F9810E94BB1022960895EDB1FE
:10087E00E065EDB9709A0895B2DF77DFE0E6F2E059
:10088E000E94BF100895E881E064E7B98BE18A9574
:10089E00F1F7369A349BFECF349AE4B1F5B1DEC04F
:1008AE00AA93EA93FA93EFB7EA931A930A931BB1BA
:1008BE000CB1E12FEC71D9F4E0916B05EF5FE09391
:1008CE006B050E94C3100083A0916B05A83019F42C
:1008DE00E0E0E0936B05A0916D05AF5FA0936D0511
:1008EE00A83029F4E0E0E0936D05689420F80991B2
:1008FE0019913AC01A93E0916D05E030E1F3E09161
:10090E006C05EF5FE0936C050E94C3101081A091FF
:10091E006C05A83019F4E0E0E0936C05F894E091D2
:10092E006D05E150E0936D057894E12F19910895CE
:10093E00AA93EA93FA93EFB7EA93E0917805E03041
:10094E0099F0E150E0937805E0917705EF5FE09341
:10095E0077050E94C810E081ECB9A0917705A83008
:10096E0019F4E0E0E0937705E991EFBFF991E99191
:10097E00A9911895A0917805A830E1F3F894E0912B
:10098E007805E03011F45D9916C0E0917605EF5FC1
:10099E00E09376050E94C810A881A083A0917605E9
:1009AE00A83019F4E0E0E0937605E0917805EF5F6A
:1009BE00E093780502C0E881ECB978944FC0E0E08E
:1009CE00EBB9E8EDEAB9E6E0E0BDE0E0E0BDECE071
:1009DE00E9B908950E94CD10AFE5B5E004C00E94BC
:1009EE00CD10A1E6B5E0ED91FD913196FE93EE931B
:1009FE00E991EFBFF991E991B991A9911895EBB7EA
:100A0E00E06CEBBFE5E0E5BFE0E0E4BFE0ECEABFA1
:100A1E0008950E94D410AE9A0E94DE101FC00E944C
:100A2E00D410AE980E94DE1019C00E94D410AE9A57
:100A3E00E0E0F0E0FBBDEABDE0933905E0933A0556
:100A4E0008950E94D410AF9A03C00E94D410AF989C
:100A5E00E881F0E0E0933B05F0933C052196089584
:100A6E000E94D410AF9AE0E0F0E0F9BDE8BDE0934B
:100A7E003B05E0933C0508950A921A92FA926A9306
:100A8E007A938A939A93AA93BA93EA93FA93EFB7C7
:100A9E00EA93A9E2B5E00E94E510ABE2B5E00E9450
:100AAE00E510ADE2B5E00E94E510AFE2B5E00E94C0
:100ABE00E510A0912905B0912A05AB3FE0E0BE07F5
:100ACE0010F40C94620624970E94EB10E0E0EA8387
:100ADE00EB83A0913705B09138050E94EF10EA1B09
:100AEE00FB0BE0933305F0933405A0913505B091DF
:100AFE0036050E94F410EA1BFB0BE0933105F093D0
:100B0E0032050E94F410E0933505F09336050E94ED
:100B1E00EF10E0933705F0933805E0E0E0932905F8
:100B2E00E0932A05A0913305B0913405E0913B0581
:100B3E00F0913C05EA1BFB0BEA83FB83A091470572
:100B4E00B09148050E9469140E94F910EA0FFB1F2C
:100B5E000E94FE100E94F910A536E0E0BE0724F0B8
:100B6E00E4E6F0E00E94FE100E94F910AC39EFEFBF
:100B7E00BE0724F4ECE9FFEF0E94FE10EA81FB8130
:100B8E00A0914505B09146050E946914EC59FF4F9E
:100B9E000E94F910EA0FFB1FE0934305F093440502
:100BAE00A0914305B0914405A030E1E0BE0734F0BA
:100BBE00EFEFF0E0E0934305F0934405A091440578
:100BCE00AA232AF4E0E0E0934305E0934405A091C4
:100BDE003105B0913205E0913905F0913A050E9448
:100BEE00B610E881F981A0914B05B0914C050E9499
:100BFE0069140E940311EA0FFB1F0E9408110E9444
:100C0E000311A536E0E0BE0724F0E4E6F0E00E9412
:100C1E0008110E940311AC39EFEFBE0724F4ECE982
:100C2E00FFEF0E940811E881F981A0914905B0916A
:100C3E004A050E946914EC59FF4F0E940311EA0FF6
:100C4E00FB1FE0934105F0934205A0914105B09141
:100C5E004205A030E1E0BE0734F0EFEFF0E0E093A4
:100C6E004105F0934205A0914205AA232AF4E0E043
:100C7E00E0934105E0934205E0913B05F0913C0580
:100C8E00309729F0E0914305F091440502C0E0E071
:100C9E00F0E0F9BDE8BDE0913905F0913A053097E5
:100CAE0029F0E0914105F091420502C0E0E0F0E04C
:100CBE00FBBDEABD2496A0912B05B0912C051B9788
:100CCE0020F0A0915105A13009F025C022970E9475
:100CDE00EB100E940D11A0914F05B09150050E948E
:100CEE00B610E0914D05F0914E05A881B981EA1735
:100CFE00FB0758F49ADEB4DEE0E0E09351050E9463
:100D0E000D11E0934F05F0935005E0E0E0932B05B5
:100D1E00E0932C052296A0912D05B0912E051B97E0
:100D2E0020F0A0915605A13009F025C022970E940F
:100D3E00EB10A0915405B09155050E94F4100E943D
:100D4E00B610E0915205F0915305A881B981EA17CA
:100D5E00FB0758F46ADE84DEE0E0E09356050E945D
:100D6E00F410E0935405F0935505E0E0E0932D0563
:100D7E00E0932E052296A0912F05B0913005129783
:100D8E0028F0E0E0E0932F05E0933005E991EFBF06
:100D9E00F991E991B991A991999189917991699175
:100DAE00F9901990099018950E94141510E020E002
:100DBE0030E0989BC7C0EAEBF4E0FA93EA930E9406
:100DCE004B03E13011F00C94A80710E01C3160F4D5
:100DDE00A12FB0E0A253BC4F0E948910E654FB4FE6
:100DEE00E081EC931F5FF2CF0E9418110E94EC1469
:100DFE000E9421110E94EC140E9404100E94A51260
:100E0E006F010E9418110E94A712DF01EAE0F0E0C4
:100E1E000E9486145F01F601E130A0E0FA0729F482
:100E2E00EEECF3E0AAEEB3E02CC0E230A0E0FA075D
:100E3E0029F4EEECF3E0A6E0B4E023C0E330A0E04A
:100E4E00FA0729F4EEECF3E0A2E2B4E01AC0E430C3
:100E5E00A0E0FA0729F4EEECF3E0AEE3B4E011C043
:100E6E00E530A0E0FA0729F4EEECF3E0AAE5B4E0F1
:100E7E0008C0E630A0E0FA0739F4EEECF3E0A6E79E
:100E8E00B4E08CE10E94FE14E5E0F0E0EC15FD0507
:100E9E0011F00C94A807AD9B02C0AD9801C0AD9A9D
:100EAE0021E030E0EEECF3E0A2E9B4E08CE10E9448
:100EBE00FE14E5E0F0E00E942611BA92AA920E947A
:100ECE002E110E942611DA92CA920E9433110E94AC
:100EDE003A11E0919604F091970460919804709104
:100EEE0099040E9440110E9446110E943A11E0910D
:100EFE009A04F0919B0460919C0470919D040E9451
:100F0E0040110E944B110E944B11FADBE0919E049E
:100F1E00F0919F046091A0047091A1040E94401171
:100F2E000E9484100E944B11EBDBE091A204F09121
:100F3E00A3046091A4047091A5040E9440110E9424
:100F4E00501137CFE22FF2C01A930A9300E010E04F
:100F5E000E9456110E945C11ECE6F2E00E94BF1056
:100F6E00AC9AAD9A989B63C0E4E0EA938CDCE09374
:100F7E001B05F0931C05E5E0EA9385DCE0931D0567
:100F8E00F0931E050E944B110E948410B9DBE09174
:100F9E001B05F0911C050E94BB100E944B110E9474
:100FAE006211E0911D05F0911E050E94BB10A091EB
:100FBE001B05B0911C05AB3FE0E0BE0730F0E6E14B
:100FCE00EA932DDDEAE00E946811A0911D05B09113
:100FDE001E05AB3FE0E0BE0730F0EAE0EA931FDD0E
:100FEE00E6E10E946811A0911B05B0911C05ECE290
:100FFE00F1E00E943B140E2EA0911D05B0911E052E
:10100E00ECE2F1E00E943B14E02131F0E6E1EA93DC
:10101E0000DDE6E1EA9315DD0F5F1F4F0333E0E0DD
:10102E001E0720F000E010E00E9471119BCF099185
:10103E00199108950E94141500E010E020E030E0B0
:10104E0000E010E00530E0E01E075CF40E94751130
:10105E00AE0FBF1FE0E0F0E0ED93FC930F5F1F4F6C
:10106E00F1CF20E030E02233E0E03E0714F00C94A4
:10107E008208E0E0EA9307DCA0911F05B0912005FD
:10108E00EA0FFB1FE0931F05F0932005E1E0EA93C2
:10109E00FADBA0912105B0912205EA0FFB1FE09328
:1010AE002105F0932205E2E0EA93EDDB0E947B112D
:1010BE00EA0FFB1FE0932305F0932405E3E0EA9388
:1010CE00E2DBA0912505B0912605EA0FFB1FE09308
:1010DE002505F0932605E7E0EA93D5DBA0912705D9
:1010EE00B0912805EA0FFB1FE0932705F093280522
:1010FE002F5F3F4FB8CF00E010E00530E0E01E0755
:10110E00ACF40E947511EA0FFB1FBF010E9475110E
:10111E000E9480117996DF01E2E3F0E00E947314E1
:10112E00DB01ED93FC930F5F1F4FE7CF0E941B1562
:10113E002496089526970E94EB10E0E0EA83EB8355
:10114E00EC83ED830E94121510E020E030E00E9447
:10115E0056110E944B11D4DAE7E7F2E00E94BF105D
:10116E000E944B110E945C11E2E8F2E00E94BF1057
:10117E00AC9AAD9A0E948511153068F40E948E11BA
:10118E000E9480114E175F0720F40E948E110E945C
:10119E0095111F5FF1CF202F3327989BBEC00E9461
:1011AE008511153068F40E948E110E9480114E1721
:1011BE005F0720F40E948E110E9495111F5FF1CFE0
:1011CE000E949B11E21BF30BDF0132972CF4FD0101
:1011DE00EF3FAFEFFA070CF434C00E949B1130972B
:1011EE0049F40E949E110E94A211E1E0F0E0EE830C
:1011FE00FF8325C0E130A0E0FA0729F40E949E117A
:10120E000E94A6111CC0E230A0E0FA0729F40E9449
:10121E00AA110E94A61113C0E330A0E0FA0729F428
:10122E000E94AA110E94AE110AC0E430A0E0FA0793
:10123E0031F40E94B211E1E0F0E0E887F987202F47
:10124E003327A885B985119719F40E94B71109F4AF
:10125E001FC00E94B2110E948511153068F40E94C1
:10126E008E110E9480114E175F0720F40E948E117E
:10127E000E9495111F5FF1CF202F33270E947B1103
:10128E00A53FE1E0BE0718F0E0E0E887E987D9CF97
:10129E00AE81BF81119719F40E94B71109F421C0D4
:1012AE000E949E110E94A2110E948511153068F4B1
:1012BE000E948E110E9480114E175F0720F40E942B
:1012CE008E110E9495111F5FF1CF202F33270E94A0
:1012DE007B11A53FE1E0BE0718F0E0E0EE83EF835F
:1012EE00D7CF0E94BC110E949B11FA93EA930E94E1
:1012FE002E110E94C1115A934A93A5DAEA85FB85F5
:10130E003196EA87FB87AA85BB855F9728F0E0E0D8
:10131E00EA87EB870E94711140CF0E9419152C9617
:10132E000895E79787E3A0E0B0E0EEE4F2E00E94D4
:10133E0020150E94121500E010E020E030E040E0A1
:10134E0050E00E9456110E944B11DAD9EAE8F2E001
:10135E000E94BF100E944B110E945C11E5E9F2E061
:10136E000E94BF10AC9AAD9A0E94C4110530E0E005
:10137E001E078CF40E9475110E9480110E94D111DB
:10138E0038F40E9475110E948011EBA3FCA3A801F2
:10139E000F5F1F4FEBCF4E835F83E0E0F4E0EBA3D4
:1013AE00FCA3EE8FEF8F989B3FC044DE01E010E070
:1013BE000530E0E01E078CF40E9475110E9480112A
:1013CE000E94D11138F40E9475110E948011EBA376
:1013DE00FCA3A8010F5F1F4FEBCF0E94BC110E9410
:1013EE00D61101E010E00530E0E01E079CF40E94EB
:1013FE0075110E948011AE8DBF8DAE17BF0738F4E8
:10140E000E9475110E948011EE8FFF8F0AA30F5F4D
:10141E001F4FE9CFE4E0F0E00E94C111EE8DFF8D89
:10142E00FA93EA9310DABFCFE0E0EDA7EEA7EFA7AD
:10143E00E8AB00DE00E010E00530E0E01E0714F03F
:10144E000C94700A0E9475110E94801166277727EE
:10145E00E9ABFAAB6BAB7CABA9A9BAA98BA99CA9DA
:10146E00A831E1E0BE07E0E08E07E0E09E0744F41D
:10147E00E1E0F0E060E070E0EDA7FEA76FA778ABCB
:10148E00F801A8EEB3E00E946914DF01E9A9FAA9F8
:10149E006BA97CA90E9436140E946E14A9A5BAA548
:1014AE008BA59CA50E941B14E9A7FAA76BA77CA786
:1014BE00E9A9FAA96BA97CA9ADA1BEA18FA198A596
:1014CE000E941B14EDA3FEA36FA378A70F5F1F4FFF
:1014DE00B3CFADA5BEA58FA598A9A130E0E0BE07FC
:1014EE00E0E08E07E0E09E0701F5EDA1FEA16FA101
:1014FE0078A5A9A5BAA58BA59CA50E94B0146627B0
:10150E0077270E943114EDABFEAB6FAB78AFE0E006
:10151E00EDA7EEA7EFA7E8ABE9A7EAA7EBA7ECA725
:10152E00EDA3EEA3EFA3E8A719C0A9ADBAAD8BAD9D
:10153E009CADA039E7E0BE07E0E08E07E0E09E0735
:10154E002CF0E0EDF7E060E070E004C0E8E0F7E0DA
:10155E0060E070E0EDABFEAB6FAB78AFADA9BEA9AE
:10156E008FA998ADEFE8F7E060E070E00E942014DC
:10157E000E94DE120E94DC110E94E111E0E0F0E018
:10158E0068EC72E40E94FB1309F010F40C94D10A7B
:10159E000E94DC110E94E111E0E0F0E068EC72ECD8
:1015AE000E94FB1310F40E94DC110E94E111E0E096
:1015BE00F0E06CE072E40E94E6110E94EF11A8893F
:1015CE00B9898A899B89E0E0F0E060EC70E40E94C2
:1015DE00FB1309F010F40C94F60A0E94EF11A8897F
:1015EE00B9898A899B89E0E0F0E060EC70EC0E949A
:1015FE00FB1310F40E94EF110E94E111E0E0F0E005
:10160E0060EE70E40E94E6117F936F93FF93EF9369
:10161E000E94F411EC85FD856E857F850E94111365
:10162E00DF01CB01E0E0F0E060EF71E40E94B61361
:10163E00AF91BF918F919F910E9418130E94F91143
:10164E000E94FE110E9421110E94FB1309F010F45A
:10165E000C94370BE0E0F0E060E171E40E940312BD
:10166E000E94FE11E0E0F0E060E271EC0E94FB13DC
:10167E0030F4E0E0F0E060E171EC0E940312EC89DE
:10168E00FD896E897F89A0E0B0E080E291E40E943E
:10169E0018130E94A512EA93BCD90E94FE110E9453
:1016AE0021110E9411130E94A512EA93CAD9EDA925
:1016BE00FEA96FA978ADE9AFFAAF6BAF7CAFEC8541
:1016CE00FD856E857F85E887F9876A877B87B1CE32
:1016DE00989BDEC00E94C4110530E0E01E078CF41A
:1016EE000E9475110E9480110E94D11138F40E943F
:1016FE0075110E948011EBA3FCA3A8010F5F1F4F71
:10170E00EBCF0E9446110E945C11EE81FF81FA938D
:10171E00EA930E9433110E945C115A934A930E94DD
:10172E002E110E94C1110E94D611AE81BF81FA0105
:10173E00EA1BFB0BDF0132972CF4FD01EF3FAFEFFD
:10174E00FA070CF438C0FA01309749F40E949E1142
:10175E000E94A611E1E0F0E0E88FF98F2AC0E13097
:10176E00A0E0FA0739F4E2E0EA9353D9E8E0EA930D
:10177E0068D91FC0E230A0E0FA0739F4EAE0EA9334
:10178E0048D9EAE0EA935DD914C0E330A0E0FA0745
:10179E0021F4E8E00E940A120CC0E430A0E0FA073F
:1017AE0041F40E94AA110E94AE11E1E0F0E0EA8F2E
:1017BE00FB8F4E835F83AA8DBB8D119719F40E9408
:1017CE00B71109F426C0E4E10E940A120E94C41166
:1017DE000530E0E01E078CF40E9475110E94801106
:1017EE000E94D11138F40E9475110E948011EBA352
:1017FE00FCA3A8010F5F1F4FEBCF4E835F830E94A8
:10180E007B11A633E1E0BE0718F4E0E0EA8FEB8F20
:10181E00D2CFA88DB98D119719F40E94B71109F482
:10182E0028C0E2E0EA93F5D80E94A2110E94C411EA
:10183E000530E0E01E078CF40E9475110E948011A5
:10184E000E94D11138F40E9475110E948011EBA3F1
:10185E00FCA3A8010F5F1F4FEBCF4E835F830E9447
:10186E007B11A633E1E0BE0718F4E0E0E88FE98FC4
:10187E00D0CFEC8DFD8D3196EC8FFD8FAC8DBD8D67
:10188E005F9728F0E0E0EC8FED8F0E94711120CF72
:10189E000E941915ED9608950E9414150E941112BA
:1018AE000E945C11EDE9F2E00E94BF100E944B1104
:1018BE00E9E1F0E00E941412E7EAF2E00E94BF10A4
:1018CE00AC9AAD9A989B37C00E941812E0916D05A4
:1018DE00E03081F10E9446110E9462110E94810443
:1018EE001E2F1A930E949203133519F4E0E00E9402
:1018FE002812163419F4E4E60E942F12123431F431
:10190E00E4E6EA938CD8E4E6EA939FD8123519F40C
:10191E00E4E60E9428121C3419F4E0E00E942F1213
:10192E002F5F3F4F293EE3E03E0720F020E030E0FE
:10193E000E947111C7CF0E941B150C9402100E94B9
:10194E0011120E945C11EDEAF2E00E94BF100E949B
:10195E00A211E4E1EA935DD8989B2BC00E94461138
:10196E000E9484100E948703E8EBF2E00E94BF10F1
:10197E000E944611EDE2F0E00E9414120E94F41053
:10198E000E94BB100E9436120E9484100E94870390
:10199E00EFEBF2E00E94BF100E943612EDE2F0E093
:1019AE000E9414120E94EF100E94BB100E943B1264
:1019BE00D3CF56D83AD80895E0916D05E03069F04E
:1019CE000E9411120E945C11E6ECF2E00E94BF1020
:1019DE000E948104EA930E94C104089508956097BD
:1019EE00E0E0EABBEBBB0E94CE030E9484100E9493
:1019FE005C11E0EDF2E00E94BF10989B9FC0E0E00A
:101A0E00EA930E944A04E883F983E1E0EA930E9494
:101A1E004A04EA83FB83E2E0EA930E944A04EC83E1
:101A2E00FD83E3E0EA930E944A04EE83FF83E4E041
:101A3E00EA930E944A04E887F987E5E0EA930E9458
:101A4E004A04EA87FB87E6E0EA930E944A04EC87A1
:101A5E00FD87E7E0EA930E944A04EE87FF870E9423
:101A6E004B110E9484100E948703E8EDF2E00E9461
:101A7E00BF10E881F9810E9441120E944B110E9411
:101A8E004512EBEDF2E00E94BF10EA81FB810E944D
:101A9E0041120E9446110E9484100E948703EEEDAF
:101AAE00F2E00E94BF10EC81FD810E9441120E9463
:101ABE0046110E944512E1EEF2E00E94BF10EE8147
:101ACE00FF810E9441120E9436120E9484100E94D1
:101ADE008703E4EEF2E00E94BF10E885F9850E94CC
:101AEE0041120E9436120E944512E7EEF2E00E9469
:101AFE00BF10EA85FB850E944112E4E0F0E0FA9304
:101B0E00EA930E9484100E948703EAEEF2E00E949C
:101B1E00BF10EC85FD850E944112E4E0F0E0FA93DF
:101B2E00EA930E944512EDEEF2E00E94BF10EE85A0
:101B3E00FF850E9441120E94B0105FCF60960895FB
:101B4E000E941112E5E0F0E00E941412E0EFF2E0C4
:101B5E000E94BF100E944B110E9484100E948703A6
:101B6E00ECEFF2E00E94BF1008951A93EFEFEABB7C
:101B7E000E94481239F4AD9AAC9ADC9A0E943B123C
:101B8E00AC985DC0E230A0E0FA0741F4AD9AAC9A91
:101B9E00DE9A0E943B12AC98DE9852C0E330A0E071
:101BAE00FA0741F4AD9AAC9ADF9A0E943B12AC98B8
:101BBE00DF9846C0E430A0E0FA0741F4AD9AAC9A43
:101BCE00DD9A0E943B12AC98DD983AC0E530A0E059
:101BDE00FA0731F4AC9AAD9ADC9A0E943B122EC0F1
:101BEE00E630A0E0FA0741F4AC9AAD9ADE9A0E9474
:101BFE003B12AD98DE9824C0E730A0E0FA0741F41E
:101C0E00AC9AAD9ADF9A0E943B12AD98DF9818C03D
:101C1E00E830A0E0FA0741F4AC9AAD9ADD9A0E9442
:101C2E003B12AD98DD980CC0E930A0E0FA0761F4E4
:101C3E00AC9AAD9ADC9A0E943B12AC98AD98DC98A7
:101C4E00EEE1F0E00E944F12199108950E94CE032A
:101C5E000E9484100E945C11E9E0F3E00E94BF1024
:101C6E00E5E60E945312E7E6E5BDE0E0E4BDE3BD24
:101C7E00989B13C0AC9AAD9AE2E0ECBFE3BDE0EDE9
:101C8E00F7E00E944F12AC98AD98EAE0ECBFE3BDCE
:101C9E00E0EDF7E00E944F12EBCFE0E00E9453120E
:101CAE00E0E0E5BDE4BDE3BD08950E9459120E9437
:101CBE0084100E948703E2E1F3E00E94BF100E94AD
:101CCE005011A0911605B0911705119711F00C94B3
:101CDE00430F4BDF989992C0E0911A05EF5FE093A6
:101CEE001A05A0911A05AC3018F0E1E0E0931A0540
:101CFE000E94481249F40E9459120E9484100E94B8
:101D0E008703EFE1F3E074C0E230A0E0FA0749F494
:101D1E000E9459120E9484100E948703ECE2F3E0A5
:101D2E0067C0E330A0E0FA0749F40E9459120E94FE
:101D3E0084100E948703E9E3F3E05AC0E430A0E088
:101D4E00FA0749F40E9459120E9484100E948703D8
:101D5E00E6E4F3E04DC0E530A0E0FA0749F40E9456
:101D6E0059120E9484100E948703E3E5F3E040C0FD
:101D7E00E630A0E0FA0749F40E9459120E9484103E
:101D8E000E948703E0E6F3E033C0E730A0E0FA07F5
:101D9E0049F40E9459120E9484100E948703EDE6B6
:101DAE00F3E026C0E830A0E0FA0749F40E94591289
:101DBE000E9484100E948703EAE7F3E019C0E9301D
:101DCE00A0E0FA0749F40E9459120E9484100E9462
:101DDE008703E7E8F3E00CC0EA30A0E0FA0771F4FD
:101DEE000E9459120E9484100E948703E3E9F3E0D7
:101DFE00FA93EA930E94B0030E94501199993BC046
:101E0E000E94481211F4A0D836C0E230A0E0FA07C2
:101E1E0011F442DD30C0E330A0E0FA0711F48AD9A4
:101E2E002AC0E430A0E0FA0711F47BDA24C0E530D2
:101E3E00A0E0FA0711F483DD1EC0E630A0E0FA0739
:101E4E0011F4CDDD18C0E730A0E0FA0711F4C6DDBD
:101E5E0012C0E830A0E0FA0711F4AEDD0CC0E93094
:101E6E00A0E0FA0711F4F2DE06C0EA30A0E0FA07AD
:101E7E0011F40E94DB0625CF0895A097EFEFEABB81
:101E8E00EFEBE7BBECEFE4BBE2EFE1BBE0E4E7B97D
:101E9E00E3E8E6B9E1EAEFBDE2E0EEBDE0E0EDBD7C
:101EAE00ECBDE7BDE6BDEBBDEABDE9BDE8BDE4E0D6
:101EBE00E9BF30E0313020F40E9418123F5FFACFB4
:101ECE000E943E040E9443040E94AF020E943F0300
:101EDE000E9406050E94E60478940E9484100E94D7
:101EEE005C11E0EAF3E00E94BF100E944B110E94C9
:101EFE0084100E948703EBEAF3E00E94BF109899CA
:101F0E001DC0A8E1B5E00E94E510A0911805B091A2
:101F1E0019051B9770F0989BFECFE0E0E093180533
:101F2E00E0931905E1E0F0E0E0931605F093170554
:101F3E00BCDEE4E6F0E00E944F12E1CF0E944611B3
:101F4E000E9484100E948703E8EBF3E00E94BF100A
:101F5E00A096FFCFE881EFB9779BFECFEFB1219628
:101F6E0008957B816A81F981E88177FB770F67FDA0
:101F7E007160972F9E5781F078F0983190F4AA27D0
:101F8E00BB27882708948795B795A7959A95D1F77B
:101F9E00EA23FB23682305C0E8947727EE27FF2763
:101FAE0066276F77769508F4606877F9A991B991ED
:101FBE0089919991EA17FB076807790797FB0895AE
:101FCE000E945C120E945F1219F40E945C1213C0F0
:101FDE00E6F70E9466120E9411130DC00E945C1259
:101FEE000E945F1219F40E945C1205C0E6F30E9473
:101FFE0066120E941813249608952497EC81FD8191
:10200E006E817F810E94081529F4E0E0F0E060E027
:10201E0070E034C0EC81FD816E817F810E94F411ED
:10202E000E94B6130E94E7140E945C120E940815CB
:10203E0029F4E0E0F0E060E070E020C00E94E214DD
:10204E000E940C1534F40E945C120E94EC14B8DF4E
:10205E0005C00E945C120E94EC14C0DF0E94E714BF
:10206E000E945C12AC81BD818E819F810E9468139B
:10207E000E94F4110E94F1140E9411132C960895DF
:10208E00FA93EA93E5E0F0E0FA93EA930C942203D4
:10209E00EA930E94E4021E2F0895EA930E947A03A7
:1020AE00E0E0EA9308951A930A9300E010E0E1E06D
:1020BE00EA93E0E0EA930E947A0300E010E00895CC
:1020CE00E1E0EA93EB81F0E0B097A5E0B0E00E948A
:1020DE004114EC5AFF4FE00FF11FE491EA930C9478
:1020EE007A03EA93E0E0EA930C947A031A930A9344
:1020FE0000E010E000E010E00895E0E0F0E0FA9378
:10210E00EA930895E12FF0E00895DE011196EA0FAB
:10211E00FB1FBF01AE81BF81EAE0F0E00E94B51463
:10212E00DB01EC93AE81BF81EAE0F0E00E94731414
:10213E00EE83FF830895A4E0B0E00E94F714EA1B3B
:10214E00FB0BDE011196AE0FBF1FEC91E05DEA9323
:10215E000895E8EEF3E0FA93EA930C946C12EA1BFE
:10216E00FB0BE883F9830895FA93EA930C94120417
:10217E00FA93EA930C94B003E150F0E0ED59FA4F64
:10218E000895E150F0E0E259FA4F0895AA93BA93F8
:10219E00EA93FA93EFB7EA930895E0E0E0933D05F2
:1021AE00E0933E05E0933F05E09340050895E881F6
:1021BE00F0E0E0933905F0933A050895ED91FD9125
:1021CE003196FE93EE930895E0E0E883E983089557
:1021DE00E0916105F09162050895E0915F05F0913F
:1021EE0060050895A0913D05B0913E050895E093D8
:1021FE003D05F0933E050895A0913F05B091400531
:10220E000895E0933F05F09340050895E6DFA09111
:10221E006105B0916205AE0FBF1FFD01F695E79502
:10222E000895E091CE03F091CF036091D0037091A9
:10223E00D1030895E0E0F0E060E271E40895FA93CE
:10224E00EA93E8E2F0E0FA93EA930C9487030E9493
:10225E002A04E4E0F0E008950E942A04E3E0F0E0AE
:10226E00FA93EA930895E4E1F0E0FA93EA930C947A
:10227E0087030E94A712FA93EA930C942A04E2E0D1
:10228E00F0E0FA93EA930895E1E0F0E0FA93EA932E
:10229E000895E8ECF0E0FA93EA930C946C12E0E007
:1022AE00EABBEBBB0E94BC0328CFEAE0F0E0FA9356
:1022BE00EA930C948703EAE2F0E0FA93EA930C9423
:1022CE008703EA930E942C05E8E5F2E0FA93EA937D
:1022DE000C946C120E9469030C946F03F801AFE129
:1022EE00B5E0EE0FFF1F0895A0912305B0912405D0
:1022FE000895AE0FBF1F0E94D91408950E942108A1
:10230E0040911F055091200500E011E00895E12F46
:10231E00AFE1B5E0F0E0EE0FFF1F0895AE0FBF1F67
:10232E004D915C91012F0895E02FF0E00895E1E0CA
:10233E00EA930C941005E4E1EA930C942805EFE07F
:10234E00EA930C942805EFE0EA930C941005E1E073
:10235E00EA930C942805E4E1EA930E941005F7CF66
:10236E00A0E09899A1E0A0300895E3E0F0E0FA93A0
:10237E00EA939BCFFA93EA9398CF0E942108E091BB
:10238E001F05F0912005EBA3FCA340E050E001E017
:10239E0010E00895ABA1BCA1EA17FB070895EBA1CD
:1023AE00FCA1FA93EA930C942A04EC87FD876E87BE
:1023BE007F870895AC85BD858E859F8508950E9483
:1023CE00B613A889B9898A899B890E941813089522
:1023DE00E88BF98B6A8B7B8B0895A885B9858A85E6
:1023EE009B850895EC8BFD8B6E8B7F8B0895AC894E
:1023FE00BD898E899F890895F5DFE0E0E88BE98B32
:10240E00EA8BEB8B0895EA930E941005E2E0EA93C3
:10241E000C9428050E94BC0370CEFA93EA930C9498
:10242E008703AC9AAD9AE4E6F0E0FA93EA930E9441
:10243E006C12AC98AD98E4E6F0E0FA93EA930C9443
:10244E006C12EA930E941005E0E0EA930C942805C2
:10245E00EA930E941005E4E6EA930C942805E3E063
:10246E00F0E0FA93EA930895EAE0F0E0FA93EA9343
:10247E000C946C12FA93EA930C94E003EBE2F0E006
:10248E00CCCFE0911A05F0E0E130A0E0FA07089514
:10249E00FA93EA930C946C12E3BFE0E0E2BFECBF58
:1024AE00E2BD08950E94A70DEACE0E94DD140895A4
:1024BE000E94EC140E94B80F0E94E7140895F5DFF5
:1024CE00A0E0B0E080E89FE30895E991F99130969D
:1024DE0039F080ED97E00197F1F7A8953197C9F79C
:1024EE000895552342F4503811F4E0FF04C031969C
:1024FE00691F791F6BF050E8572711F45F93CFC017
:10250E005F3F31F0660F000C57956795752F089554
:10251E005F9300200AF0CFC0C8C050E8192E1522D4
:10252E00880F991F9527550F879550E8072E05227E
:10253E00660F771F7527550F67950895689401C02C
:10254E00E8945F93F2DF703818F07F3F08F4A7C06D
:10255E0056E1571BAAF4519558300EF4593030F00D
:10256E00EFEFFFEF6FEF7FE777F91AC0772755236D
:10257E00B9F0EE0FFF1F661F771F5A95D1F710C0E7
:10258E007727583028F0EF2FF62F672F5850F9CFB6
:10259E00552331F076956795F795E7955A95D1F7CE
:1025AE0000200AF44FD15F910895689401C0E89419
:1025BE00309760407040B1F0002426F0772312F47B
:1025CE00009440D1172E7EE1112032F07A95EE0F55
:1025DE00FF1F661F111CF9CFEF2FF62F612D5F9392
:1025EE008ADF5F9108954F93AF01FD01DA01AB01D0
:1025FE00BC01CA01402D012C142E4F910895EA0FF3
:10260E00FB1F681F0895E095F0956095EF5FFF4FF3
:10261E006F4F08955F9381DF903871F150E8152662
:10262E0004C05F937ADF903839F1703821F1572F5B
:10263E00591B2BF112F4D7DFFACF583118F0AA2715
:10264E00BB278827583028F0AB2FB82F8827585033
:10265E00F9CF552329F08695B795A7955A95D9F7B1
:10266E00502D512572F0CBDF38F46795F795E7952D
:10267E00739513F420C0B7DF3EDF5F910895D8F74E
:10268E00FBCFEA1BFB0B680B51F010F40094BBDF81
:10269E00662392F3EE0FFF1F661F7A95CBF7EE2798
:1026AE00FF27662777275F910895EFEFFFEF6FE71C
:1026BE007FEF5F910895EFEFFFEF6FE77FE75F9199
:1026CE0008955F932ADF703851F3903841F3012457
:1026DE000894791F23F41CF300203AF3ECCF0F92E9
:1026EE001F932F933F934F93112722279927689F6C
:1026FE00A0018F9F302D410D591F6B9F300D411D35
:10270E00591F8E9F27D0BF9F25D06A9F23D0BE9F73
:10271E001DD0AF9F1BD0AE9F110D291F391F491F12
:10272E00591FE32FF42F652F522F4F913F912F9169
:10273E001F910F9066232AF0550FEE1FFF1F661F85
:10274E0002C073954BF2CDDE5F910895100D211DE1
:10275E00391F02C0200D311D491F591F08955F9367
:10276E00DCDE703821F411200AF49FCFA4CF90380C
:10277E0009F495CF01240894970B1BF4D4F3002091
:10278E00F3CF792F1F932F933F934F93112411273C
:10279E00222733274427552790E2AE17BF07860717
:1027AE00410730F0AE1BBF0B860B410B089401C0E6
:1027BE008894551F221F331F111CAA1FBB1F881F71
:1027CE00441F9A9551F7F901612D4F913F912F9129
:1027DE001F91662332F0550FEE1FFF1F661F7A956D
:1027EE0043F27FDE5F91089599239AF0772342F0AA
:1027FE00971748F029F4AE17BF07860720F031F07F
:10280E0098948894089598940894089518948894A8
:10281E0008957723C2F7971798F3A9F7EA17FB07DE
:10282E00680788F399F3ECCFEA0FFB1F681F791F37
:10283E000895EA1BFB0B680B790B0895F195E19552
:10284E00F0400895F09560957095E195FF4F6F4FAC
:10285E007F4F08956F2F660F660B762F08958B2F7F
:10286E00880F880B982F0895AE17BF07E1E008F088
:10287E00EE270895FA9FF02DEB9FF00DEA9FE02DC5
:10288E00F10D08957A9F702D6B9F700DF89F700D4E
:10289E00E99F700D6A9F602D710DFB9F600D711D7C
:1028AE00E89F600D711D8827FA9FF02D610D781F2E
:1028BE00EB9FF00D611D781FEA9FE02DF10D681F53
:1028CE00781F08954ED0D6DF0EF4B8DF089557D096
:1028DE00D9DF0EF4B7DF08950024112490E1AA0F7A
:1028EE00BB1F001C111C0E1A1F0A18F40E0E1F1E01
:1028FE0001C0A1609A9599F7FD01D001089531D0DC
:10290E00EBDF0EF49BDF08953F934F935F9300240C
:10291E0011244427552730E2AA0FBB1F881F991F89
:10292E00001C111C441F551F0E1A1F0A460B570B75
:10293E0028F40E0E1F1E461F571F01C0A1603A95A8
:10294E0059F7FD01BC01D001CA015F914F913F9132
:10295E00089515D0D9DF0EF475DF0895BDDFFD01A2
:10296E000895E894F7FF02C069DF6894B7FF06C0C8
:10297E00A095B095119600F8039400FA0895E89486
:10298E0077FF02C05FDF689497FF0BC00024A0950D
:10299E00B095809590951196801D901D00F803942A
:1029AE0000FA0895ED91FC9111970895E881F9814F
:1029BE006A817B810895A881B9818A819B8108955E
:1029CE00E883F9836A837B8308957A936A93FA93F3
:1029DE00EA930895182E862F612D192E972F712D9B
:1029EE001B2EBF2FF12D1A2EAE2FE12D08959927F4
:1029FE00EF93FF9361916D930197E1F7FF91EF9143
:102A0E000895309760407040089500240A160B0612
:102A1E000806090608955A934A933A932A931A93ED
:102A2E000A9308955D814C813B812A811981088129
:102A3E000895AC0FBD1F05900D928A95E1F708958C
:00000001FF
